{
    "contractName": "NFTMarket",
    "abi": [
        {
            "inputs": [],
            "stateMutability": "nonpayable",
            "type": "constructor"
        },
        {
            "anonymous": false,
            "inputs": [
                {
                    "indexed": true,
                    "internalType": "uint256",
                    "name": "itemId",
                    "type": "uint256"
                },
                {
                    "indexed": true,
                    "internalType": "address",
                    "name": "nftContract",
                    "type": "address"
                },
                {
                    "indexed": true,
                    "internalType": "uint256",
                    "name": "tokenId",
                    "type": "uint256"
                },
                {
                    "indexed": false,
                    "internalType": "address",
                    "name": "seller",
                    "type": "address"
                },
                {
                    "indexed": false,
                    "internalType": "address",
                    "name": "owner",
                    "type": "address"
                },
                {
                    "indexed": false,
                    "internalType": "uint256",
                    "name": "price",
                    "type": "uint256"
                },
                {
                    "indexed": false,
                    "internalType": "bool",
                    "name": "sold",
                    "type": "bool"
                }
            ],
            "name": "MarketItemCreated",
            "type": "event"
        },
        {
            "inputs": [
                {
                    "internalType": "address",
                    "name": "nftContract",
                    "type": "address"
                },
                {
                    "internalType": "uint256",
                    "name": "tokenId",
                    "type": "uint256"
                },
                {
                    "internalType": "uint256",
                    "name": "price",
                    "type": "uint256"
                }
            ],
            "name": "createMarketItem",
            "outputs": [],
            "stateMutability": "payable",
            "type": "function"
        },
        {
            "inputs": [],
            "name": "getListingPrice",
            "outputs": [
                {
                    "internalType": "uint256",
                    "name": "",
                    "type": "uint256"
                }
            ],
            "stateMutability": "view",
            "type": "function"
        }
    ],
    "bytecode": "6080604052662386f26fc1000060045534801561001b57600080fd5b506001600055600380546001600160a01b03191633179055610323806100426000396000f3fe6080604052600436106100295760003560e01c806312e855851461002e57806358eb2df514610050575b600080fd5b34801561003a57600080fd5b5060045460405190815260200160405180910390f35b61006361005e3660046102ae565b610065565b005b600260005414156100bd5760405162461bcd60e51b815260206004820152601f60248201527f5265656e7472616e637947756172643a207265656e7472616e742063616c6c0060448201526064015b60405180910390fd5b60026000558061010f5760405162461bcd60e51b815260206004820152601c60248201527f5072696365206d757374206265206174206c656173742031207765690000000060448201526064016100b4565b600454341461016c5760405162461bcd60e51b8152602060048201526024808201527f5072696365206d75737420626520657175616c20746f206c697374696e6720706044820152637269636560e01b60648201526084016100b4565b61017a600180546001019055565b600061018560015490565b6040805160e0810182528281526001600160a01b0387811660208084018281528486018a8152336060870181815260006080890181815260a08a018e815260c08b018381528d8452600598899052928c90209a518b55955160018b018054918b166001600160a01b0319928316179055945160028b0155915160038a018054918a1691861691909117905590516004808a01805492909916919094161790965591519286019290925592516006909401805494151560ff199095169490941790935592516323b872dd60e01b81529182015230602482015260448101869052919250906323b872dd90606401600060405180830381600087803b15801561028b57600080fd5b505af115801561029f573d6000803e3d6000fd5b50506001600055505050505050565b6000806000606084860312156102c2578283fd5b83356001600160a01b03811681146102d8578384fd5b9560208501359550604090940135939250505056fea2646970667358221220dcb15ed3e490a96dc200b319b9504a3f77d47cf85fb5c4c00f640cec6a9ae20c64736f6c63430008040033",
    "sourcePath": "c:/Users/USER/hackathon/0515-L2-Rollathon/polygon-gitcoin-bounty/nft-playground/contracts/NFTMarket.sol",
    "compiler": {
        "name": "solc",
        "version": "0.8.4+commit.c7e474f2"
    },
    "functionHashes": {
        "createMarketItem(address,uint256,uint256)": "58eb2df5",
        "getListingPrice()": "12e85585"
    },
    "gasEstimates": {
        "creation": {
            "codeDepositCost": "160600",
            "executionCost": "61055",
            "totalCost": "221655"
        },
        "external": {
            "createMarketItem(address,uint256,uint256)": "infinite",
            "getListingPrice()": "946"
        }
    }
}